:0300000002441E99
:0C441E00787FE4F6D8FD758179024465D2
:10217E000D0A507265762E46573A25303278253044
:10218E00327825303278000D0A437572722E46571A
:10219E003A253032782530327825303278000D0AE3
:1021AE0043616E6E6F742061636365737320454582
:1021BE0050524F4D21212121000D0A4E6F20696E84
:1021CE00697469616C697A6500285345545F4D43A3
:1021DE00555F504F5745525F444F574E5F4D4F44DA
:1021EE00452920000D0A285345545F50574D3D2573
:1021FE003032782076616C3D253032782900282ADD
:10220E004456524368616E676543757272656E74AB
:10221E003D3330306D412900282A445652436861BF
:10222E006E676543757272656E743D313030306D18
:10223E004129000D0A3D3D3D3D3D3D3D3D3D3D3D70
:10224E003D3D3D3D3D3D3D3D3D3D3D3D3D3D3D3DB0
:10225E003D3D3D3D3D3D3D000D0A53797374656D29
:10226E0020686173206265656E20776F726B696E90
:10227E006720666F7220256420646179732C202597
:10228E006420686F7572732C202564206D696E75DD
:10229E0074657320616E64202564207365636F6EB0
:1022AE006473000D0A53797374656D206861732031
:1022BE006265656E20776F726B696E6720666F72EE
:1022CE0020256420686F7572732C202564206D693B
:1022DE006E7574657320616E64202564207365636A
:1022EE006F6E6473000D0A53797374656D206861A7
:1022FE0073206265656E20776F726B696E672066FC
:10230E006F72202564206D696E7574657320616E21
:10231E0064202564207365636F6E6473000D0A5329
:10232E00797374656D20686173206265656E2077C0
:10233E006F726B696E6720666F72202564207365FD
:10234E00636F6E6473000D0A28426174746572794E
:10235E004254483D25642825642E256456292900BB
:10236E002854454D505F4849474829002848494759
:10237E00485F544D45505F5741524E2900285445F1
:10238E004D505F4C4F572900284C4F575F544D45C9
:10239E00505F5741524E29002854454D505F4E4FC5
:1023AE00524D414C29000D0A2842617474657279B0
:1023BE004341503D25642825642E2530346456292A
:1023CE002928256456290028484947485F43484133
:1023DE005247452900284C4F575F434841524745C5
:1023EE002900284E4F524D414C5F434841524745BC
:1023FE0029002853544F505F434841524745290006
:10240E00284348415247455F4E4F5F42415454293D
:10241E0000285F424154545F5354415455535F4317
:10242E00415041434954595F4C4556454C30290063
:10243E00285F424154545F5354415455535F4341B6
:10244E005041434954595F4C4556454C312900285B
:10245E005F424154545F5354415455535F4341506E
:10246E0041434954595F4C4556454C322900285F2B
:10247E00424154545F5354415455535F434150416C
:10248E00434954595F4C4556454C332900285F4209
:10249E004154545F5354415455535F43415041434B
:1024AE004954595F4C4556454C342900285F4241EA
:1024BE0054545F5354415455535F43415041434923
:1024CE0054595F4D494E2900285F424154545F5381
:1024DE0054415455535F43415041434954595F4D04
:1024EE0041582900285F424154545F53544154557A
:1024FE00535F43415041434954595F4D41585F53D7
:10250E00544F50290028424154544552595F43417B
:10251E005041434954595F4E4F5F535441525455A5
:10252E00502900285F424154545F5354415455532F
:10253E005F4E4F5F42415454290028434841524751
:10254E00455F544D45505F41424E4F524D414C29CF
:10255E00000D0A285F504F5745525F535441545552
:10256E00535F534156494E4729000D0A285F504F7D
:10257E005745525F5354415455535F4F46462900B9
:10258E000D0A285F504F5745525F535441545553CF
:10259E005F4E4F524D414C29000D0A28504F574562
:0D25AE00525F5354415455533D256429009C
:1037C2004102690041026A0041025E00410260005A
:1037D2004102610041025C004102540041026B005F
:1037E2004102590002400000014600C101C18002AD
:1037F2004700000144000145000274000004690012
:10380200000000046D00000000C1044102550101E6
:103812007200014200014300C102C10341025F0084
:10382200410256004102620044026500000000426B
:04383200026300002D
:103C32001249119001D21216547F047E00124D5F78
:103C42007E00C007C0067F05124D5F7E00C007C020
:103C5200067F06124D5F9001E0E4F0A3EFF09001C1
:103C6200DED0E0F0A3D0E0F09001DCD0E0F0A3D011
:103C7200E0F07BFF7A21797E124AF8124911E47B47
:103C820036FAF9F8C312160F605F7BFF7A21799535
:103C9200E49001DCF0A3F0A3F0A3F0A3F0A3743648
:103CA200F0124AF8124E987F047E00124D5F7E0099
:103CB200C007C0067F05124D5F7E00C007C0067FA9
:103CC20006124D5F9001E0E4F0A3EFF09001DED028
:103CD200E0F0A3D0E0F09001DCD0E0F0A3D0E0F07F
:103CE2007BFF7A217995124AF8124911E47B36FA60
:103CF200F9F8C312160F700B1249A5EF701E12428B
:103D02005380197BFF7A2179AC124AF87BFF7A2122
:103D120079C7124AF890012E74FFF0227F64124E86
:0E3D2200CA7811E6540F4410F654F04402F62D
:013D30002270
:10487100758DF4759850758922758855758A4075BE
:104881008C4075878075B80275A892D299D2ACE434
:10489100F5C8C2CAD2AD75AA5075BAF443A6184379
:1048A100AD10C203F5E9F5F975D90443D840439336
:1048B100A04391C475964075B10CF5B275B30CF572
:0248C100B4221F
:104C4E007BFF7A2179D7124AF8D2C2C2C1D2C0D222
:104C5E00C6C2C5D2C4900259E5A8F075A8809001CD
:0F4C6E001B7401F0D2E8D2E975878200000022A2
:104E610020850320EA137F327E00124EB520850390
:0C4E710020EA037F01227F00227F002244
:1042F6009001D7EFF0A3EDF07BFF7A2179F29001E0
:10430600DCE4F0A3EFF0EDFFA3E4F0A3EFF0124A34
:10431600F89001D7E0606D24EB60532416606124A9
:10432600EB706475EC809001D8E0FFC374FF9FF5D5
:10433600FC75DC42EF7004F5DCC294900114E06475
:1043460010701175EC8075FC6675DC427BFF7A2275
:10435600790C8017900114E06411702B75EC807550
:10436600FCFF75DC427BFF7A227926024AF875ED5E
:10437600809001D8E0FFC374FF9FF5FD75DD4222F2
:0843860043D8402253D8402225
:03000B00022DFDC6
:0B2DFD00C0E0C083C082C0D075D008C9
:102E080005730545C3E545940A7480948040139082
:102E18000182E004F07006900181E004F07545003D
:102E2800D20C90025DE0600214F090025DE0600355
:102E3800022FAAE5B0540C13135403FF900268E064
:102E48006F7003022FAA900266E0900265F090026C
:102E580067E0900266F0900268E0900267F0A3EFE6
:102E6800F0D20590025D7430F0900265E0FF7E00BC
:102E78007020A3E06401701AA3E064037014A3E057
:102E88006402700E900264E004F07006900263E041
:102E980004F0EF64014E7020900266E0640370183D
:102EA800A3E064027012A3E0700E900264E004F0E4
:102EB8007006900263E004F0900265E06403701EFF
:102EC800A3E064027018A3E07014A3E06401700E1C
:102ED800900264E004F07006900263E004F090024F
:102EE80065E0FF7E006402701EA3E0701AA3E06430
:102EF800017014A3E06403700E900264E004F070A3
:102F080006900263E004F0EF4E7022900266E064DF
:102F180002701AA3E064037014A3E06401700E90B9
:102F28000264E024FFF0900263E034FFF090026551
:102F3800E06402701EA3E064037018A3E0640170EB
:102F480012A3E0700E900264E024FFF0900263E0A8
:102F580034FFF0900265E0FF7E006403701EA3E07A
:102F680064017018A3E07014A3E06402700E90026C
:102F780064E024FFF0900263E034FFF0EF64014E58
:102F88007020900266E0701AA3E064027014A3E057
:102F98006403700E900264E024FFF0900263E03452
:102FA800FFF0D3E57394607480948050030230A9D5
:102FB800054AE54A700205497573000544E544640D
:102FC800647010F544E54690025F6005E004F08007
:102FD80002E4F0E575F47003E574F460080575E53E
:102FE8007570020574AF70AE6FAD6EAC6DEC4D4E82
:102FF8004F6014EF24FFF570EE34FFF56FED34FFEA
:10300800F56EEC34FFF56D900257E07002A3E060B6
:103018000E900258E024FFF0900257E034FFF0E5EC
:10302800E8F4FF131313541F30E04CE541643245B4
:1030380040701A900106E0600B7811E6FFC4540F47
:1030480064077029754601C200D2018020E541B4A9
:10305800201BE540B4031630000D754601D20190DF
:10306800026B7401F0C2007540007541330541E5FB
:1030780041702E0540802AC3E5419432E540940012
:103088004012900106E06401700A3000077546019D
:10309800D2018005754600C201D200754000754115
:0130A8000027
:0930A900D0D0D082D083D0E032F7
:1029E2007BFF7A2279417F01124A33900260E0FF35
:1029F20060327BFF7A2279669001DCE4F0A3EFF08B
:102A0200900261E0FF9001DEE4F0A3EFF090025C3F
:102A1200E0FF9001E0E4F0A3EFF0900254E0FF90B9
:102A220001E28057900261E0FF60257BFF7A227904
:102A3200B19001DCE4F0A3EFF090025CE0FF9001C2
:102A4200DEE4F0A3EFF0900254E0FF9001E0802B6F
:102A520090025CE0FF7BFF60167A2279F39001DC42
:102A6200E4F0A3EFF0900254E0FF9001DE800C7AD4
:102A720023792B900254E0FF9001DCE4F0A3EFF005
:102A82007F03124A339001C5E0FEA3E0FF9001DC10
:102A9200EEF0A3EFF07805C333CE33CED8F9FBAA1C
:102AA200067C277D10FF1213959001DEEEF0A3EF56
:102AB200F07C277D10AF03AE02121395A3ECF0A3B6
:102AC200EDF07BFF7A2379547F02124A3390010F93
:102AD200E0541F6406700A7BFF7A23796E7F0180BF
:102AE20042900110E0C31313500A7BFF7A23797AD4
:102AF2007F03802F90010FE0541F6408700A7BFF50
:102B02007A23798B7F04801B900110E01313543FCA
:102B1200137BFF50087A2379967F0380067A237904
:102B2200A67F02124A33900111E0541F6409706FAC
:102B3200A3E0FEA3E07805C333CE33CED8F9246AEE
:102B4200FFEE34FFFE7C277D101213957E007F641A
:102B5200CFCDCFCECCCE121395AA06AB07900112E1
:102B6200E0FEA3E07805C333CE33CED8F9246AFF62
:102B7200EE34FFFE7C277D101213957C007D6412DB
:102B82001383EF2BFFEE3AFE9001D6F0A3EFF07D18
:102B9200371213837D641213959001D6EE807190E3
:102BA2000112E0FEA3E0FF7C007D3B1213837D64F3
:102BB200121395EF25E0FBEE33FA900112E0FEA32B
:102BC200E0FF7C007D3B1213837D64121395EF2B93
:102BD200FFEE3AFE9001D6F0A3EFF07C037DE812FF
:102BE2001395EF4E9001D66017E0FEA3E0FF7C0044
:102BF2007D0A121395EF2401FFE43E9001D6801066
:102C0200E0FEA3E0FF7C007D0A1213959001D6EE50
:102C1200F0A3EFF0900112E0FEA3E0FF9001DCEEE2
:102C2200F0A3EFF07C007D21121383AA06AB077C90
:102C3200277D10121395A3EEF0A3EFF07C277D10F1
:102C4200AF03AE02121395A3ECF0A3EDF09001D600
:102C5200E0FFA3E09001E2CFF0A3EFF07BFF7A2345
:102C620079B47F05124A33900111E0541F640D704C
:102C72000A7BFF7A2379D57F02804E900111E054BE
:102C82001F640E700A7BFF7A2379E37F03803A90F8
:102C92000111E0541F640F700A7BFF7A2379F07FE1
:102CA200058026900111E0541F6410700A7BFF7AA0
:102CB2002479007F018012900111E0541F64097091
:102CC2000B7BFF7A24790E7F01124A3390010EE0CA
:102CD200541F640470087BFF7A24791F804490019A
:102CE2000EE0541F640370087BFF7A24793E803221
:102CF20090010EE0541F640270087BFF7A24795D14
:102D0200802090010EE0541F640170087BFF7A243A
:102D1200797C800E90010EE0541F700A7BFF7A24AA
:102D2200799B7F02806290010EE0541F6415700A45
:102D32007BFF7A2479BA7F04804E90010EE0541F03
:102D42006416700A7BFF7A2479D67F06803A900156
:102D52000EE0541F6417700A7BFF7A2479F27F0514
:102D6200802690010EE0541F6418700A7BFF7A25BA
:102D720079137F05801290010EE0541F6409700BD5
:102D82007BFF7A2579317F01124A33900110E013DB
:102D92001313541F13500B7BFF7A2579487F0112BE
:102DA2004A337811E6C4540F640770087BFF7A2512
:102DB200795F80377811E6C4540F640170087BFF95
:102DC2007A25797880257811E6C4540F64027BFF56
:102DD20070067A25798E80137A2579A77811E6C450
:102DE200540FFF9001DCE4F0A3EFF07F06124A33A8
:0B2DF2007BFF7A2279417F01024A3307
:104EE200E4FFEFC3941D74809480500974222FF85C
:054EF200E4F60F80ED65
:014EF7002298
:10472E00EF24E5B40A00507090474475F003A4C519
:10473E008325F0C5837302476E02476202476C02FF
:10474E0047670247700247A6024778024782024730
:10475E008F02479BD2E9D2E822D2E8C2E922800535
:10476E00801530E817C2E8D2E92230E905C2E9D255
:10477E00E822800830E805C2E8C2E922D2E8D2E990
:10478E002230E904C2E98002D2E9C2E82230E8040C
:09479E00C2E88002D2E8C2E9225F
:03001300020026C2
:03002600C2AA3239
:03002300024C7D0F
:104C7D00C0E0C0D075D008309819744B2571F8A6D6
:104C8D00990571C3E571941E74809480400375710C
:0F4C9D0000C298309904C299C202D0D0D0E03240
:03006300024B74D9
:104B7400C0E0C0D075D008E5AA54016401701A538E
:104B8400AAFE74222542F8A69A0542C3E542941E61
:104B9400748094804003754200E5AA540264027054
:0B4BA4000553AAFDC203D0D0D0E032C0
:0B4F9800E542B543037F00227F0122A9
:104E430053ADEF74222543F8E6FF0543E543C394CE
:0D4E53001E748094804003E4F54343AD10CD
:014E6000222F
:080003002003FD8F9AD20322B5
:03002B00024F7D04
:0F4F7D00C0E0C2CF0548E54870020547D0E032DA
:104ECA00E5442FFFE433FE7C007D64121395E5442C
:074EDA00B505FBE4B504F788
:014EE10022AE
:03003300024DE695
:104DE600C0E0C083C082C2C2C2C17587809002592A
:0F4DF600E0F5A890011BE4F0D082D083D0E0322A
:03003B00024E056D
:104E0500C0E0C083C082C2C6C2C575878090025902
:0F4E1500E0F5A890011BE4F0D082D083D0E0320A
:104F48000D0A436C656172426173696345452E2E93
:024F58002E0029
:104911007E007D007C007F05124D5FEF7F00FEC0B1
:1049210007C0067F047E00124D5F7E00EF7810C342
:1049310033CE33CED8F9FDD0E04EFED0E04DFFC0EE
:1049410007C0067F067E00124D5FEFFDD0E0FED06E
:09495100E04DFFEE3395E0FDFCA2
:01495A00223A
:1049A5009001D67401F0E4FFFE124D5FEF643060B4
:1049B500037F00227F017E00124D5FEF64376003A5
:1049C5007F00227F027E00124D5FEF643060037F1F
:1049D50000227F037E00124D5FEF644960037F0074
:0649E500229001D6E0FF64
:0149EB0022A9
:104E9800E4FD7F04FE1249ECE4FD7F05FE1249ECB7
:094EA8007D367F067E000249EC14
:104253007BFF7A4F7948124AF87D30E4FFFE12491A
:10426300EC7D377F017E001249EC7D307F027E00BA
:104273001249EC7D497F037E001249EC7D017F10DA
:104283007E001249EC7D277F117E001249ECE4FD8C
:104293007F07FE1249ECE4FD7F12FE1249ECE4FDB8
:1042A3007F13FE1249EC7D017F147E001249EC7DE1
:1042B300017F157E001249ECE4FD7F16FE1249ECE6
:1042C3007D017F177E001249ECE4FD7F18FE124941
:1042D300EC7D017F197E001249ECE4FD7F20FE1284
:1042E30049EC7D017F217E001249ECE4FD7F22FE33
:0342F3000249EC91
:043836004101050047
:091C8800124F98EF700302217D58
:101C9100124E439001D2EFF07E00647E700DC20BB4
:101CA10090010504F0E4900003F022EF647D4E7092
:101CB10003D20B22300B09C20B9001D2E04470F029
:101CC100900105E0FB64046010900003E0FE9001C8
:101CD100D2E0FDEE6D900003F0EB24FE6032146063
:101CE10063147003021D8D2403600302217D9001A2
:101CF100D2E0900002F01424F8500E24F924FD5093
:101D010008248E6004245570389001057402F02275
:101D11009001D2E0900001F0A3E01424F8500E24C9
:101D2100F924FD5008248E6004245570149000019C
:101D3100E07002804DE4900000F09001057403F022
:101D410022022178900002E01424F8500E24F92494
:101D5100FD5008248E60042455702E9001D2E0FFBE
:101D6100900000E02405F582E43400F583EFF09063
:101D71000000E004F0A3E0FF900000E06F600302C8
:101D8100217D9001057404F0220221789001D2E0B6
:101D9100FF900003E06F6003022178900002E012DF
:101DA10016B11DCE011E11021E2B031E34041E3D51
:101DB100051FAE061FF407213508201F102028112A
:101DC100209412212A30215C85000021789001188D
:101DD100E04401F0900111E054E04414F090011846
:101DE100E0FF131313541F13500EEF54F7F07F133A
:101DF1001230B27F08124A79900118E0C3131340E0
:101E0100097D1A7F107E27123F1075B230022178AA
:101E11007F1A124A79900118E0C31313500302216B
:101E2100787D1A7F107E270221307D067FE87E03B0
:101E31000221307D077F647E00022130900005E0A1
:101E4100FDC4540F75F00AA4FFED540F7C002FFD63
:101E5100EC35F0FC12114990013C12165490000629
:101E6100E0FDC4540F75F00AA4FFED540F7C002F60
:101E7100FDEC35F0FC12114990012A121654900024
:101E810007E0FDC4540F75F00AA4FFED540F7C0068
:101E91002FFDEC35F0FC12114990014012165490BF
:101EA1000008E0FDC4540F75F00AA4FFED540F7C47
:101EB100002FFDEC35F0FC12114990012F12165440
:101EC100900009E0FDC4540F75F00AA4FFED540F12
:101ED1007C002FFDEC35F0FC1211499001441216E3
:101EE1005490000AE0FDC4540F75F00AA4FFED54AC
:101EF1000F7C002FFDEC35F0FC12114990013312DB
:101F0100165490000BE0FDC4540F75F00AA4FFEDC8
:101F1100540F7C002FFDEC35F0FC12114990014863
:101F210012165490000CE0FDC4540F75F00AA4FF82
:101F3100ED540F7C002FFDEC35F0FC12114990019E
:101F410037121654900005E0FD7F157E001249EC12
:101F5100900006E0FD7F167E001249EC900007E03C
:101F6100FD7F177E001249EC900008E0FD7F187E8E
:101F7100001249EC900009E0FD7F197E001249EC46
:101F810090000AE0FD7F207E001249EC90000BE0FA
:101F9100FD7F217E001249EC90000CE0FD7F227E46
:101FA100001249EC7D0C7FE87E0302213090000590
:101FB100E0C394057480948050037405F09000058B
:101FC100E024FB75F00AA4FFA3E02F900175F0D384
:101FD10094287480948040057428F0800A900175DB
:101FE100E0FFC374289FF07D037FF47E01123FEF71
:101FF100022178900005E0FD7C00700A900118E054
:1020010054FDF0022178ED64014C60030221787FD8
:102011001A124A79900118E04402F00221787D04F5
:102021007FE87E03022130900005E07033900118B3
:10203100E054FEF07F1A124A797F1F124A797F20FD
:10204100124A797F21124A797F22124A797F23121B
:102051004A797F24124A797D227F647E00022130F1
:10206100900005E064017008900118E044088014B4
:10207100900005E064026003022178900118E044B9
:1020810008F04410F07D087FE87E03123F107F1AAC
:10209100022125900005E0FD7C006401700990019A
:1020A10018E054BFF0802F900106E064017027ED25
:1020B1004C7023900118E054BFF0E4900106F0FD4C
:1020C1007F10FE1249EC900118E0FF1313543F13E7
:1020D1005004EF54FBF0900106E06401704490005D
:1020E10005E06402703C90010FE04420F09001187B
:1020F100E054BFF0E4900106F0FD7F10FE1249ECC0
:102101007F137E00124D5FEF70087D017F13FE1279
:1021110049EC900118E0FF1313543F135004EF549E
:10212100FBF07F0A124A79804E7D0B7FE87E031215
:102131003F108043900005E0640170107D017F1223
:10214100FE1249EC90013B7401F0802BE4FD7F12FB
:10215100FE1249ECE490013BF0801C900005E06424
:102161000190011470057411F080037410F0900156
:0C21710011E054E04414F0E4900105F08B
:01217D00223F
:044F0D009291D2901B
:0F4F1100E4FFEFC394017480948050030F80F38A
:014F2000226E
:0B49EC009001D6EEF0A3EFF0A3EDF079
:1049F7009001D6E0FEA3E07807CEC313CE13D8F913
:104A070044A054FE9001D9F0124F5A9001D9E0FF0B
:104A17001246B39001D6A3E0FF1246B39001D8E047
:0C4A2700FF1246B31200167F02024ECAB6
:044D5F00AD07AC06EA
:104D6300ED7807CEC313CE13D8F944A054FEFF1237
:104D73004BAF9001FAEFF07F02124ECA9001FAE0B6
:014D8300FF30
:014D8400220C
:084BAF009001FBEFF0A3EDF013
:104BB700124F5A9001FBE0FF1246B39001FCE0FF51
:104BC7001246B3124F5A9001FBE04401FF1246B35D
:104BD700124BE89001FDEFF01200169001FDE0FF87
:014BE70022AB
:104F5A00D291124F11D290124F11C291124F11C217
:024F6A00902293
:0D001600C291124F11D290124F11D29122BF
:1046B300AE07C290EE30E703D38001C3124F0DC2A1
:1046C30090EE30E603D38001C3124F0DC290EE305B
:1046D300E503D38001C3124F0DC290EE30E403D340
:1046E3008001C3124F0DC290EE30E303D38001C3A8
:1046F300124F0DC290EE30E203D38001C3124F0D6F
:10470300C290EE30E103D38001C3124F0DC290EE8D
:1047130030E003D38001C3124F0DC290C290C29008
:0B472300D291D290D290D290C290228E
:104BE800E4FED291124F11C290E4FDFCD290EE2562
:104BF800E0FE3091034401FEC2900DBD00010CEDB2
:104C080064084C70E7124F11D290D290D290C290A3
:024C1800AF06E5
:014C1A002277
:10463500AE07C290EE30E703D38001C3124F0DC21F
:1046450090EE30E603D38001C3124F0DC290EE30D9
:10465500E503D38001C3124F0DC290EE30E403D3BE
:104665008001C3124F0DC290EE30E303D38001C326
:10467500124F0DC290EE30E203D38001C3124F0DED
:10468500C290EE30E103D38001C3124F0DC290EE0C
:1046950030E003D38001C3124F0DC290C290C29087
:0E46A500D291124F11D290D290D290C2902298
:044DA600AB07AA06A7
:104DAA007E5E124F5A7F5E124635AF03124635AF0A
:0C4DBA00051246351200167F02024ECA98
:104CAC007F01124E7DEF602590026BE06401701461
:104CBC00900106E06401700C90026BF07D057FF4AE
:0E4CCC007E0180067D147F647E00123F102260
:104E7D00A2019209C2012009037F0022EF6003AF56
:0A4E8D004622200003AF46227F00FA
:014E970022F8
:1047A7000D0A5374617274204D61696E204C6F6FEE
:1047B700702E2E2E000D0A537461727420426F6F93
:1047C700742E2E2E000D0A2843616D657261566F97
:1047D7006C743D256429000D0A28476F696E6720B0
:1047E700746F20706F776572206F66662E2E2E2984
:1047F700000D0A2853746172742075702020506F61
:10480700776572204F6E204D6F64652E2E2E29001E
:07481700000000000000009A
:10383A0046010E000000000000420118000041018C
:10384A00140041011B00440125000000004201153B
:10385A0000004101170041012900410122004201F3
:10386A0023000044013C3F8000004401403F8000A7
:10387A00004401443F8000004401483F8000004466
:10388A00012A0000000044012F0000000044013317
:10389A000000000044013700000000460108000053
:1038AA000028001546011C000000280015602901A7
:1038BA004C0506080A0B0D0F10121416181A1C1EB6
:1038CA00202225272A2C2F3235383B3E4245484BA9
:0A38DA005055585D61666B70757AF9
:104C1B0075E5028DE39001DBE0F5E41212F9F5E2A4
:104C2B0075E64675E6B9740129F9E43AFA9001DBA9
:104C3B00E004F0E070030D8DE39001DCE014F0E094
:034C4B0070D32201
:04000E0075E78122EF
:104D8500E49001D6F012000E7B017A0179D69001EC
:104D9500DB74FFF0A37401F07DEF124C1B75E76027
:014DA50022EB
:1041A600FF6DFD9002147401F0A37402F0A3740F66
:0A41B600F0EFA3F07B017A0179FF1E
:1041C000900211EBF0A3EAF0A3E9F0900217E0FFF0
:1041D000647E6005EF647D703F900214E0FBA3E015
:1041E000FAA3E0F91212F9FF900211E0FBA3E0FA42
:1041F000A3E0F98F82758300747D1213619002141D
:10420000E0FBA3E0FAA3E0F9740112133F90021758
:10421000E0540F4450FF8010900217E0FF9002140A
:10422000E0FBA3E0FAA3E0F91212F9FE900211E01C
:10423000FBA3E0FAA3E0F98E82758300EF1213610D
:10424000900214E0FBA3E0FAA3E0F9740112133F1B
:034250007F0022CA
:0B438E009001FBEBF0A3EAF0A3E9F0C4
:104399009001FF747EF090020F7401F0EF1241A8B2
:1043A9009001FEE01241A6E4900210F09001FEE0B7
:1043B900FF900210E0FEC39F501E9001FBE0FBA39B
:1043C900E0FAA3E0F98E827583001213121241A656
:1043D900900210E004F080D49002147401F0A374E8
:1043E90002F0A3740FF0ED1241B8E4900210F090BE
:1043F900020FE0FFA3E0FEC39F501774FF2EF58262
:10440900E43401F583E0FF120003900210E004F0A8
:0444190080DD7F00C3
:01441D00227C
:053350009001F2EFF016
:1033550078F37C017D017BFF7A4879177E007F0732
:103365001212D39001F2E0247F604E1470030235EF
:103375003D14700302356814700302357824046027
:10338500030235897F047E00124D5F9001F3EFF053
:103395007F057E00124D5F9001F4EFF07F067E0001
:1033A500124D5F9001F5EFF07B017A0179F3900101
:1033B500FE7403F07F80023586900112E0FEA3E0E3
:1033C500FF7C007D3B1213837D64121395EF25E08E
:1033D500FBEE33FA900112E0FEA3E0FF7C007D3B9B
:1033E5001213837D64121395EF2BFFEE3AAB07FAA8
:1033F5007C037DE8FE121395EF4E7C007D0AAF033A
:10340500AE026009121395EF2401FB800512139596
:10341500AB079001F3EBF09001C5E0FCA3E0FDECF8
:103425009001F5F0EDA3F0900117E0FF75F00A8427
:10343500C454F0FEEF75F00A84E5F04E9001F7F004
:10344500900123E0FEA3E0FF7C007D0A121395EFB7
:10345500C454F0FB900123E0FEA3E0FF7C007D0A4D
:10346500121395EB4D9001F8F0900129E09001F9C8
:10347500F090010EE0F9C4131354031350079001A3
:10348500F4E04401F090010FE0541FFD7C00640658
:1034950070079001F4E04402F0ED64084C70079069
:1034A50001F4E04404F0E9C41354071350079001F4
:1034B500F4E04408F0900110E0FD1350079001F48A
:1034C500E04410F0EDC3131350079001F4E04420DD
:1034D500F0900110E01313543F1350079001F4E0EE
:1034E5004440F020804230813FD39001C6E0945A99
:1034F5009001C5E09400403090010FE0FFC4131324
:103505005403134023EF541F6407701CA3E01313E7
:1035150013541F13401290010EE0C41354071340B7
:10352500079001F4E04480F07B017A0179F3900182
:10353500FE7407F07F81804990010EE0FFC41313EC
:1035450013540113500D9001F37401F0EF547F9063
:10355500010EF07B017A0179F39001FE7401F07F91
:1035650082801E7B017A0179F39001FE7401F07F60
:1035750083800E7B017A0179F39001FE7401F07F5F
:043585008412438EDB
:01358900221F
:10481E0012003E7D157F017E00123F107D117F013B
:10482E007E00123F107D167FE87E03123F107D132F
:10483E007F017E00123F107D1F7F017E00123F1010
:10484E007D107F017E00123F107D2C7F107E27127F
:10485E003F107D187F107E27123F1090010EE0440E
:03486E0040F022F5
:10398E009001D8EEF0A3EFF0A3EBF0A3EAF0A3E9D9
:01399E00F038
:10399F00900004121477FDD3EF9DE5F06480F8EEEC
:1039AF006480984003023A429001E0E0FBA3E0FA02
:1039BF00A3E0F9900004121477FFAEF012144CFD3F
:1039CF00C3EF9DFFEE95F09001E3F0A3EFF09001B0
:1039DF00DAE0FBA3E0FAA3E0F9900004121477FDFC
:1039EF00ACF012144CFBAAF0C3ED9BFFEC9AFE90C7
:1039FF0001E5F0A3EFF04E7002FF229001D8E0FE38
:103A0F00A3E0FFC3EF9BFFEE9AFE9001E3E0FCA360
:103A1F00E0FD121383A3E0FCA3E0FD1213EAC0063E
:103A2F00C0079001E0E0FBA3E0FAA3E0F912144C09
:103A3F00023AE69001E0E0FBA3E0FAA3E0F9900080
:103A4F0004121477FFAEF0900002121477C39FFF99
:103A5F00E5F09E9001E3F0A3EFF09001DAE0FBA315
:103A6F00E0FAA3E0F9900004121477FFAEF0900093
:103A7F0002121477C39FFFE5F09EFE9001E5F0A3BD
:103A8F00EFF04E7002FF229001DAE0FBA3E0FAA301
:103A9F00E0F9900004121477FFAEF0AB07AA06907E
:103AAF0001D8E0FEA3E0FFC3EF9BFFEE9AFE90016B
:103ABF00E3E0FCA3E0FD121383A3E0FCA3E0FD12FF
:103ACF0013EAC006C0079001E0E0FBA3E0FAA3E011
:103ADF00F9900004121477FFAEF0D0E02FFFD0E082
:103AEF003EF99001DDE0FBA3E0FAA3E0C98FF012ED
:043AFF0014AF7F0180
:013B0300229F
:104ABA007E009001DD7401F0A37401F0A374D6F0B6
:104ACA00A37401F0A37401F0A3741CF07B017A01B2
:104ADA00790812398E9001D6E0FEA3E0244CF582C3
:0E4AEA0074013EF583E0FD7F027E00024DA6C2
:10358A007F107E00124D5F900106EFF07F117E00E2
:10359A00124D5F900175EFF07F127E00124D5F9021
:1035AA00013BEFF07F147E00124D5F90011AEFF09D
:1035BA007F157E00124D5FEFC4540F75F00AA4FF09
:1035CA00AEF0C006C0077F157E00124D5FEF540FA4
:1035DA00FDD0E02DFDD0E03400FC12114990013CF1
:1035EA001216547F167E00124D5FEFC4540F75F009
:1035FA000AA4FFAEF0C006C0077F167E00124D5F18
:10360A00EF540FFDD0E02DFDD0E03400FC1211493B
:10361A0090012A1216547F177E00124D5FEFC45490
:10362A000F75F00AA4FFAEF0C006C0077F177E0030
:10363A00124D5FEF540FFDD0E02DFDD0E03400FCB9
:10364A001211499001401216547F187E00124D5FE4
:10365A00EFC4540F75F00AA4FFAEF0C006C0077F8E
:10366A00187E00124D5FEF540FFDD0E02DFDD0E023
:10367A003400FC12114990012F1216547F197E0052
:10368A00124D5FEFC4540F75F00AA4FFAEF0C006E6
:10369A00C0077F197E00124D5FEF540FFDD0E02D59
:1036AA00FDD0E03400FC1211499001441216547FF7
:1036BA00207E00124D5FEFC4540F75F00AA4FFAECE
:1036CA00F0C006C0077F207E00124D5FEF540FFD49
:1036DA00D0E02DFDD0E03400FC12114990013312E4
:1036EA0016547F217E00124D5FEFC4540F75F00A05
:1036FA00A4FFAEF0C006C0077F217E00124D5FEF27
:10370A00540FFDD0E02DFDD0E03400FC1211499099
:10371A0001481216547F227E00124D5FEFC4540FE7
:10372A0075F00AA4FFAEF0C006C0077F227E001221
:10373A004D5FEF540FFDD0E02DFDD0E03400FC12B8
:10374A0011499001371216547F137E00124D5FEF14
:10375A00600790010FE04420F090013BE0640170A3
:10376A001E900106E0700E7D017F10FE1249EC905A
:10377A0001067401F090011AE06401703A80179012
:10378A00011AE06401701C7D017F10FE1249EC9061
:10379A0001067401F0E4FD7F14FE1249ECE4900185
:1037AA001AF022900106E06401700CFD7F10FE12EF
:0837BA0049ECE4900106F02245
:104DC600EF4488F5C5E5C520E3FBAFC6EF75F004F3
:104DD600A4FFE5E85403FDEF4DFFE5F05403FE2282
:074FA300E4FE7F06024DC68B
:074FAA00E4FE7F07024DC683
:1025BB002005030229E17F0A7ED77D237C3C900115
:1025CB002AE0F8A3E0F9A3E0FAA3E0FB120F9E9038
:1025DB00013CE0F8A3E0F9A3E0FAA3E0FB120EAD97
:1025EB009001D61216547F0A7ED77D237C3C900136
:1025FB002FE0F8A3E0F9A3E0FAA3E0FB120F9E9003
:10260B000140E0F8A3E0F9A3E0FAA3E0FB120EAD62
:10261B009001DA1216547F0A7ED77D237C3C900101
:10262B0033E0F8A3E0F9A3E0FAA3E0FB120F9E90CE
:10263B000144E0F8A3E0F9A3E0FAA3E0FB120EAD2E
:10264B009001DE1216547F0A7ED77D237C3C9001CD
:10265B0037E0F8A3E0F9A3E0FAA3E0FB120F9E909A
:10266B000148E0F8A3E0F9A3E0FAA3E0FB120EADFA
:10267B009001E21216547F007EB07DE57C459001FF
:10268B00D6E0F8A3E0F9A3E0FAA3E0FB120F9EE477
:10269B00FBFA797A78441210A79001E61216547F50
:1026AB00E17E987DD27C459001DAE0F8A3E0F9A3B6
:1026BB00E0FAA3E0FB120F9EE4FBFA797A7844125E
:1026CB0010A79001E6E0F8A3E0F9A3E0FAA3E0FB82
:1026DB00120EAD9001EA1216547F487EC17D2C7C00
:1026EB00469001DEE0F8A3E0F9A3E0FAA3E0FB12C9
:1026FB000F9EE4FBFA797A78441210A79001EAE076
:10270B00F8A3E0F9A3E0FAA3E0FB120EAD9001EE03
:10271B00121654900263E0FEA3E0FFC3EE648094B4
:10272B00804008E4900129F0FC8017900129740186
:10273B00F0900263E0FEA3E0FFC3E49FFFE49EFE84
:10274B007C007D021213EA9001D2EEF0A3EFF09021
:10275B0001D2E0FEA3E0D394F0EE940040030228F4
:10276B0001C3EE94005003022801E4FFFE7DF57CCB
:10277B00419001D6E0F8A3E0F9A3E0FAA3E0FB1245
:10278B000F9EC004C005C006C0079001D2E0FCA399
:10279B00E0FDE4121149D003D002D001D000120F9A
:1027AB009EE4FBFA797A78441210A7900125121651
:1027BB0054E4FFFE7DF57C419001D6E0F8A3E0F9EF
:1027CB00A3E0FAA3E0FB120F9EC004C005C006C035
:1027DB00079001D2E0FCA3E0FDE4121149D003D035
:1027EB0002D001D000120F9E1211829001D4EEF094
:1027FB00A3EFF00229679001D2E0FEA3E0FFD39490
:10280B00F0EE9400406BD3EF94C2EE940150627FD4
:10281B002F7E5D7D007C429001DAE0F8A3E0F9A306
:10282B00E0FAA3E0FB120F9EC004C005C006C00770
:10283B009001D3E02410FD9001D2E034FFFCE412B0
:10284B001149D003D002D001D000120F9EE4FBFA45
:10285B00797A78441210A79001E6E0F8A3E0F9A387
:10286B00E0FAA3E0FB120EAD9001251216540229DB
:10287B00679001D2E0FEA3E0FFD394C2EE94014037
:10288B006AD3EF940CEE940350617F197E047D069E
:10289B007C429001DEE0F8A3E0F9A3E0FAA3E0FBB1
:1028AB00120F9EC004C005C006C0079001D3E024E0
:1028BB003EFD9001D2E034FEFCE4121149D003D06E
:1028CB0002D001D000120F9EE4FBFA797A78441201
:1028DB0010A79001EAE0F8A3E0F9A3E0FAA3E0FB6C
:1028EB00120EAD9001251216548071D39001D3E0D6
:1028FB00940C9001D2E0940350030229C57F817E92
:10290B00957D0B7C429001E2E0F8A3E0F9A3E0FA9D
:10291B00A3E0FB120F9EC004C005C006C0079001C8
:10292B00D3E024F4FD9001D2E034FCFCE412114915
:10293B00D003D002D001D000120F9EE4FBFA797ABB
:10294B0078441210A79001EEE0F8A3E0F9A3E0FAA7
:10295B00A3E0FB120EAD9001251216547FCD7ECC59
:10296B007D4C7C3D900125E0F8A3E0F9A3E0FAA3B0
:10297B00E0FB120EAD121182900117EFF07FCD7EAE
:10298B00CC7D4C7C3D900125E0F8A3E0F9A3E0FA67
:10299B00A3E0FB120EADE4FBFA79C87842120F9E4E
:1029AB00121182900123EEF0A3EFF07C007D6412F4
:1029BB001395900123ECF0A3EDF0C205900118E004
:1029CB001350137F811233507F2C124A797D2C7F49
:0629DB00E87E03123F102C
:0129E10022D3
:104E24007BFF7A4779A7124AF8121C881244AA1207
:0F4E3400452F124CAC1225BB900106E070EB220B
:1045B300124871124D077BFF7A4779BC124AF812F1
:1045C3003C32D2B4D2B5124EE212358A12481E9052
:1045D3000175E0FF124ABA7BFF7A4779CC900175E7
:1045E300E0FF9001DCE4F0A3EFF0124AF890010F32
:1045F300E0FFC413540713500A124E61EF70049086
:104603000106F0900106E0640178117008E654F0A9
:104613004402F6800BE6540F4420F654F04401F6AE
:10462300C200900106E064017003124E24123D3172
:0246330080F015
:103D31007BFF7A4779DE124AF87811E654F04401A4
:103D4100F6900118E0FF1313543F135004EF54FB96
:103D5100F0900118E054FEF07F1A124A7990011890
:103D6100E054BFF07F0A124A79E490011BF0F5B2EA
:103D710012452F1244AA124CAC900106E064016076
:103D81005C90011BE070297811E6FFC4540F6401B7
:103D9100701E90010EE0FFC41313540313401190E1
:103DA100011B7401F07D2E7F107E27123F1080C011
:103DB100124E61EF6401600CE5E8F4FF1313135434
:103DC1001F30E00CE490011BF07F2E124A7980A095
:103DD10090011BE064027098124C4E80937D017F2C
:103DE100147E001249ECE4900263F0A3F0900117F5
:103DF100F0900123F0A3F0900129F0F542F54390F2
:103E01000110E054FEF0A3E054E04414F07811E610
:103E110054F04402F67BFF7A4779F8124AF875E7C5
:023E210020225D
:1038E40001108A41021E00C187C10841021C40C167
:0138F400864D
:1048C3001B5B306D001B5B303B33316D001B5B307A
:1048D3003B33326D001B5B303B33336D001B5B306E
:1048E3003B33346D001B5B303B33356D001B5B305A
:1048F3003B33366D001B5B303B33376D0030313259
:0E490300333435363738394142434445460097
:1038F50058026CFF48C3FF48C8FF48D0FF48D8FFAF
:0B39050048E0FF48E8FF48F0FF48F8EA
:08173200E0FBA3E0FAA3E0F9DB
:0B173A00900207EBF0A3EAF0A3E9F037
:1017450090021512166000000001900207E0FBA34D
:10175500E475F001121436A9F0FA1212F990020D8F
:10176500F07003021C8724DB701B900207E0FBA3CB
:10177500E0FAA3E0F91212F9B42513900208E47512
:10178500F0011214202002FD90020D021C5DC20919
:10179500C20AE4900214F0900207E0FBA3E475F09E
:1017A50001121436A9F0FA1212F990020DF0E0FDBB
:1017B500B4301BD209900207E0FBA3E475F00112D7
:1017C5001436A9F0FA1212F990020DF0801FEDFF00
:1017D5003395E0FEC3EF9430EE64809480402CD3C3
:1017E500EF9439EE64809480502190020DE024D06E
:1017F500900214F0900207E0FBA3E475F0011214C7
:1018050036A9F0FA1212F990020DF0900213740243
:10181500F090020DE024BE602B24E0602724F660E2
:10182500042420703C900207E0FBA3E475F001124C
:101835001436A9F0FA1212F990020DF09002137401
:1018450004F0801D900207E0FBA3E475F00112147B
:1018550036A9F0FA1212F990020DF09002137401F4
:10186500F090020DE0FF24A87003021B1624F5700A
:1018750003021C3224F07003021BE524FE600E24D3
:10188500FD7003021B1624146003021C65900213ED
:10189500E024FE604224FE607B24036003021936C7
:1018A500EF90020AB46419E0FBA3E475F001121489
:1018B50036A9F0FA1212F9FF3395E0FEFDFC806BB4
:1018C500E0FBA3E475F001121436A9F0FA1212F93F
:1018D500FFE4FCFDFE805490020DE090020AB46422
:1018E5001BE0FBA3E475F002121436A9F0FA1214FA
:1018F5004CFFAEF0EE3395E0FDFC8016E0FBA3E473
:1019050075F002121436A9F0FA12144CFFAEF0E489
:10191500FCFD801790020DE090020AE0FBA3E47540
:10192500F004121436A9F0FA12163490020F1216AA
:101935005490020FE0FCA3E0FDA3E0FEA3E0FFEC62
:101945003350252002FD75992DD20290020FE0FC3F
:10195500A3E0FDA3E0FEA3E0FF74FFFBFAF9F81294
:1019650014CE90020F121654900214E0600302196F
:10197500FC90020FE0FCA3E0FDA3E0FEA3E0FFEC7A
:101985004D4E4F700B2002FD759930D20202174F54
:10199500E4900214F0A312166000000001900214F6
:1019A500E0C3940A74809480504D90020FE0FCA32C
:1019B500E0FDA3E0FEA3E0FF900215E0F8A3E0F947
:1019C500A3E0FAA3E0FB121559E4FBFAF9F8C312F8
:1019D500160F6023900215E0FCA3E0FDA3E0FEA333
:1019E500E0FFE47B0AF81214CE900215121654900B
:1019F5000214E004F080A6E490020EF090021512A5
:101A0500166000000001900214E024FFFFE434FF9B
:101A1500FE90020EE0FD3395E0FCC3ED9FEE648081
:101A2500F8EC6480985025900215E0FCA3E0FDA336
:101A3500E0FEA3E0FFE47B0AFAF9F81214CE900267
:101A45001512165490020EE004F080BA90020FE0D1
:101A5500FCA3E0FDA3E0FEA3E0FF900215E0F8A3E0
:101A6500E0F9A3E0FAA3E0FB121559EF2430FF904B
:101A7500020DF0BF3025200922E47F01FEFDFC9018
:101A85000215E0F8A3E0F9A3E0FAA3E0FBC3121600
:101A95000F600890020D7420F08002D2092002FD2B
:101AA50090020DE0F599D20290020FE0FCA3E0FD53
:101AB500A3E0FEA3E0FF900215E0F8A3E0F9A3E0A0
:101AC500FAA3E0FB121559AC00AD01AE02AF0390CD
:101AD500020F121654900215E0FCA3E0FDA3E0FEF0
:101AE500A3E0FFE47B0AFAF9F812155990021512E2
:101AF5001654E4FFFEFDFC900215E0F8A3E0F9A3FF
:101B0500E0FAA3E0FBC312160F6003021A51021795
:101B15004F900213E024FE602224FE6039240370F6
:101B25004E90020AE0FBA3E475F001121436A9F009
:101B3500FA1212F9FFE4FCFDFE802E90020AE0FB8A
:101B4500A3E475F002121436A9F0FA12144CFFAE94
:101B5500F0E4FCFD801390020AE0FBA3E475F004B9
:101B6500121436A9F0FA12163490020F1216549078
:101B75000214E07008900213E025E0A3F0E490025F
:101B85000EF0900214E0FF90020EE0FD3395E0FCAC
:101B9500C3ED9F7480F86C98400302174F2002FD37
:101BA50090020EE0FF900214E0C39F1425E025E0AB
:101BB500F990020FE0FCA3E0FDA3E0FEA3E0FFA87F
:101BC500011216207E00EF540F2400F582EE3449F1
:101BD500F583E493F599D20290020EE004F080A219
:101BE50090020AE0FBA3E475F003121436A9F0FA9B
:101BF500121691900219EBF0A3EAF0A3E9F0900216
:101C050019E0FBA3E0FAA3E0F91212F97003021739
:101C15004F2002FD900219E0FBA3E475F0011214B8
:101C250036A9F0FA1212F9F599D20280D190020A7A
:101C3500E0FBA3E475F002121436A9F0FA12144C75
:101C4500FFAEF0EE3395E0FDFC90020F1216542026
:101C550002FD90020FA3A3A3E0F599D20202174F4C
:101C650090020AE0FBA3E475F002121436A9F0FA1B
:101C750012144CFFAEF0E4FCFD90020F1216540254
:021C8500174FF7
:011C8700223A
:0B4AF8009001D9EBF0A3EAF0A3E9F075
:104B03009002047401F0A37401F0A374DCF090022A
:104B130004E0F9A3E0FAA3E090020AC9F0A3EAF0E3
:104B2300A3E9F09001D9121732900204E4F0A3F044
:024B3300A3F0ED
:014B3500225D
:0B4B36009001D2EBF0A3EAF0A3E9F03D
:104B41009001FD7401F0A37401F0A374D5F09001FC
:104B5100FDE0F9A3E0FAA3E090020AC9F0A3EAF0AC
:104B6100A3E9F09001D21217329001FDE4F0A3F015
:024B7100A3F0AF
:014B7300221F
:0E4A33009001D8EFF0A3EBF0A3EAF0A3E9F0B6
:104A41009002047401F0A37401F0A374DCF09002ED
:104A510004E0F9A3E0FAA3E090020AC9F0A3EAF0A6
:104A6100A3E9F09001D9121732900204E4F0A3F007
:074A7100A3F09001D804F04E
:014A7800221B
:104CDA000A0D537973506F776572496E6974696109
:104CEA006C2E2E4F4B2121000D0A28506F776572CA
:0D4CFA005377697463683D253032782900D6
:0439100002110000A0
:104D0700D283C2A1D284D282C2A1C2B7C286C2EA6A
:104D1700C2A6C2A2D2B6C2A0D2E8D2E97FC87E009C
:0C4D2700124EB57BFF7A4C79DA024B3655
:10452F007811E6FF540F14602D24FA6050240570A3
:10453F0063EFC4540F601024F960082406700DE473
:10454F00FF80067F0380027F01124D337811E654FE
:10455F000F4420F6803E7811E6C4540F600C24FE01
:10456F00600C24FB700D7F0480067F0280027F06A3
:10457F00124D337811E6540F4410F680177811E678
:10458F00C4540F24FE70057F05124D337811E65485
:10459F000F4470F67811E6FF54F0C4540FFEEF5439
:0445AF00F04EF622B2
:1030B2009001D6EFF07F1F124A797F20124A797F62
:1030C20021124A797F22124A797F23124A797F2478
:1030D200124A799001D6E024F770030232BC24FC34
:1030E20070030231F2147003023180147003023251
:1030F2004B24FD70030233061470030233212403B0
:10310200600302334F7DE07F141242F6900111E01A
:1031120054E04410F0900118E013400A900106E0D8
:103122006401700280777811E6C4540F6407702D31
:1031320090010EE0C413135403135002801A90013D
:1031420006E070057D1C0232F990010EE0541F6406
:103152000470057D220232F97D200233487811E69F
:10316200C4540F6402701490010EE0541F64047082
:10317200057D230232F97D1D0233480232FE7D991C
:103182007F141242F6900111E054E0440EF09001D7
:1031920018E013400D900106E0640170057D1F02E6
:1031A20032F97811E6C4540F6407701590010EE0ED
:1031B200C4131354031350047D2480027D1F023371
:1031C20048900106E070139001C7E0700D9001C8AD
:1031D200E0640170057D1E0232F99001C7E0700DB6
:1031E2009001C8E0640170057D1B0232F90232B819
:1031F200E4FD7F141242F6900111E054E0440DF018
:10320200900118E013400D900106E0640170057D05
:103212001F0232F97811E6C4540F64077015900149
:103222000EE0C4131354031350047D2280027D1F49
:103232000233489001C7E0700D9001C8E06401704C
:10324200057D1E0232F90232FE7D997F141242F68A
:10325200900111E054E0440FF0900118E013400D8A
:10326200900106E0640170057D1F0232F97811E6D3
:10327200C4540F6407701590010EE0C41313540375
:103282001350047D2480027D1F023348900106E022
:1032920070129001C7E0700C9001C8E064017004E4
:1032A2007D1E80539001C7E0700C9001C8E064015C
:1032B20070047D1B80417D1D80447DE07F1412429D
:1032C200F6900111E054E04409F0900118E0134037
:1032D2000C900106E0640170047D1F801A7811E6EB
:1032E200C4540F640270047D1D800C7811E6C4542E
:1032F2000F640770077D207F64FE804E7D1C7F6413
:103302007E008046900118E0C4540F1350077F06D8
:103312001240CD8002D2827D227F647E00802B907B
:103322000118E0C4540F13500EE4FF1240CD900177
:1033320018E054EFF08002C282900118E0135004AA
:0E3342007D1D80027D227F647E00123F1022DE
:1040CD009001D7EFF07BFF7A4C79F29001DCE4F0B0
:1040DD00A3EFF0124AF89001D7E0B40A00400302B2
:1040ED00419C9040F6F828287302411402411402B5
:1040FD00416302411402416302418D024163024159
:10410D009C02419C02413AC282D2B7D2EAD2A6D2D7
:10411D00A2C2B67F147E00124EB5D2A07D157FF4DB
:10412D007E01123F107D0D7FE87E03804EC283D24B
:10413D00A17F407E00124EB5C284D286900118E058
:10414D00FF1313543F135009EF54FBF07F841233C8
:10415D005075B2308039C2A0D283D284C2A1D2822E
:10416D00C2A1C2B7C2EAC2A6C2A2C286D2B690018D
:10417D0018E04420F07D2D7FB87E0B123F10800F8C
:10418D00C2A1D284C2B7C2EAC2A2C286E4F5B2907D
:09419D000111E054E04414F02289
:104D33009001D2EFF024FE601A24FE601614601373
:104D430014601024FE600C240824F6500624F76037
:0C4D53000280089001D2E0FF1240CD2247
:10391400C10C42018100004201C502254201850318
:10392400704101C3004101790041017B014101C79C
:10393400004101C8014101780041017A0041017C44
:103944000041017D0041017E004101D1004101CBD4
:1039540000410177004101CD00410184004101CCC7
:10396400FF410176FE4101C9004101D000410180BF
:1039740000410183004101C4004101CAFF41017FAC
:09398400004101CF004101CE0019
:044EB1007FF47E010B
:104EB500EF4E6010C20C300CFDC20CEF1F70011ECE
:054EC500144E70F22202
:104F2100EF75F003A42488F582E43401F583E0FEF3
:044F3100A3E0FF22D8
:104EF800EF75F003A42487F582E43401F583E0C359
:054F080013547FFF229D
:104F3500EF75F003A42487F582E43401F583E0548A
:034F4500FEF02259
:104F6C00EF75F003A42487F582E43401F583E01394
:014F7C002212
:10495B00900181E0FFA3E09001FBCFF0A3EFF0907B
:10496B0001FBE0FEA3E0FFC3900182E09FFF9001FB
:10497B0081E09EFE124F8CD3EF947FEE6480948087
:10498B00400F900181E0FFA3E09001FBCFF0A3EF7C
:09499B00F09001FBE0FEA3E0FF37
:0149A40022F0
:083B04009001F6EEF0A3EFF0D2
:103B0C00E4A3F0A3F0A3F012495B9001F9EEF0A34B
:103B1C00EFF09001F6E0FEA3E0FFE4FCFD7B487AB9
:103B2C00EEF9F8C31215F9500A9001F674EEF0A3F1
:103B3C007448F09001F6E0FEA3E0FF9001FAE02F4C
:103B4C00FF9001F9E03EFEE4FCFD7B487AEEF9F8CB
:103B5C00C31215F9401F9001F6E0FEA3E0FF90019F
:103B6C00F9E0FCA3E0FD2FFFEC3EFED3ED9FEC9EB5
:103B7C005003023C29E4900181F0A3F09001F8F08D
:103B8C009001F8E0FFC39414748094804003023CCD
:103B9C0022EF75F003A42487F582E43401F583E069
:103BAC005401640170679001F8E0FF75F003A424E0
:103BBC0088F582E43401F583E0FCA3E0FD9001F983
:103BCC00E0FAA3E0FBD3ED9BEC9A402CEF75F003ED
:103BDC00A42488F582E43401F583C083C082C3A396
:103BEC00E09BFF0582D5820215831582E09AD08274
:103BFC00D083F0A3EFF080159001F8E075F003A4EA
:103C0C002488F582E43401F583E4F0A3F09001F804
:103C1C00E004F0023B8CE49001F9F0A3F09001F980
:053C2C00E0FEA3E0FF33
:013C31002270
:10003E00E4FFEFC39414748094805015EF75F003B1
:10004E00A42487F582E43401F583E054FEF00F809A
:01005E00E1C0
:01005F00227E
:063F0A007D147F647E00BF
:0B3F10009001F2EEF0A3EFF0A3EDF043
:103F1B00E4A3F0F09001F5E0FFC394147480948057
:103F2B00502EEF75F003A42487F582E43401F5835A
:103F3B00E0FF540164017010EFC313547FFF900135
:103F4B00F4E06F7003023FEE9001F5E004F080C4E3
:103F5B00E49001F5F09001F5E0FFC39414748094A4
:103F6B00804003023FEEEF75F003A42487F582E453
:103F7B003401F583E0FF540170609001F5E0FE75AC
:103F8B00F003A42487F582E43401F583EF4401F0B8
:103F9B009001F4E0547F25E0FFEE75F003A4248735
:103FAB00F582E43401F583E054014FF09001F2E027
:103FBB00FEA3E0FF123B049001F3E02FFF9001F210
:103FCB00E03EFE9001F5E075F003A42488F582E451
:103FDB003401F583EEF0A3EFF0229001F5E004F04D
:033FEB00023F6032
:013FEE0022B0
:104A7900E4FEEEC39414748094805034EE75F00310
:104A8900A42487F582E43401F583E0FD540164012F
:104A9900701BEDC313547FB50713EE75F003A424FF
:104AA90087F582E43401F583E054FEF0220E80C2DA
:014AB90022DA
:0B3FEF009001D3EEF0A3EFF0A3EDF083
:103FFA00E4A3F0F09001D6E0FFC394147480948097
:10400A00502DEF75F003A42487F582E43401F5837B
:10401A00E0FF54016401700FEFC313547FFF900156
:10402A00D5E0B5070280649001D6E004F080C5E4CB
:10403A009001D6F09001D6E0FFC394147480948066
:10404A0040030240CCEF75F003A42487F582E434E0
:10405A0001F583E0FF540170609001D6E0FE75F02F
:10406A0003A42487F582E43401F583EF4401F09038
:10407A0001D5E0547F25E0FFEE75F003A42487F50F
:10408A0082E43401F583E054014FF09001D3E0FE5D
:10409A00A3E0FF123B049001D4E02FFF9001D3E08C
:1040AA003EFE9001D6E075F003A42488F582E4343C
:1040BA0001F583EEF0A3EFF0229001D6E004F002BE
:0240CA00403E76
:0140CC0022D1
:103E2300EF14B40D004003023F09903E3B75F003CD
:103E3300A4C58325F0C58373023E64023E64023E3B
:103E430064023E78023E7C023E90023EA9023EBFDF
:103E5300023F09023EEA023EFF023F09023F02809F
:103E630000900175E0FF124ABA900175E0FD7F11E1
:103E73007E000249EC7F80801190010EE0C4131391
:103E83005403134003023F097F8302335090011808
:103E9300E0FF1313543F13406D7811E654F04407C9
:103EA300F6EF4404F022E4900263F0A3F0900117CC
:103EB300F0900123F0A3F0900129F022900118E083
:103EC300FF131313541F135019EF54F7F054FEF05C
:103ED3007F121230B27D087FB87E0B123F10E4F5DB
:103EE300B2227F130230B2900118E04440F07F8287
:103EF3001233507D0A7F987E3A023F10024D85D2DD
:073F0300B77F091240CD2237
:1044AA00E49001D2F0A3F0A3F0A3F09001D2F0902F
:1044BA0001D2E0C3941474809480506812495B90CE
:1044CA0001D4EEF0A3EFF09001D2E0FF124F6C504E
:1044DA004B9001D2E0FF124F21D39001D5E09F907B
:1044EA0001D4E09E40369001D2E0FF124F35900190
:1044FA00D2E0FF124EF89001D3EFF0C3940F74800C
:10450A0094805007E0FF123E2380119001D3E0FF10
:10451A00C3942F7480948050031200669001D2E0F5
:04452A0004F0808B8E
:01452E00226A
:10006600EF24F0B41F004003020EA590007F75F048
:1000760003A4C58325F0C5837302016A0203EF0258
:100086000EA50207DF0207690201DE020A9C020DC5
:10009600D3020C290207CC020A7F0200E80200DC28
:1000A6000200E00200E40200ED0200F90201030290
:1000B600010D02011702012102012B020E18020E88
:1000C60037020E29020E45020E53020E620201C5C8
:1000D6000201D6020E9F7F1C800A7F1D80067F1EAE
:1000E60080027F1B02472E7F1F12472E7D1F7FFA3D
:1000F6000207BE7F1F12472E7D20020A957F21121E
:10010600472E7D21020A957F2212472E7D22020A62
:10011600957F2312472E7D23020A957F2412472EB0
:100126007D24020A957F1C12472E7F1E12472E122F
:100136004EB17F1C12472E124EB17F1E12472E1251
:100146004EB17F1C12472E124EB17F1E12472E1241
:100156004EB17F1C12472E124EB1900111E054E0B1
:100166004414F022124E61EF6401702490010EE0F7
:10017600C4131354031340427F17124F6C500812D6
:100186004A797D17123F0C7F16124F6C502C802235
:1001960090010EE0C41313540313501E7F17124F21
:1001A6006C5008124A797D17123F0C7F16124F6C5D
:1001B6005008124A797D16123F0C7D10020A95905E
:1001C6000118E01350057F811233507D2C020A95E9
:1001D600900118E054DFF022124FAA900185EEF04C
:1001E600A3EFF0124FA39001C5EEF0A3EFF090013C
:1001F60085E0FEA3E0FFD3948AEE940250099001B5
:10020600CC7415F00202F4D3EF948AEE94024012F5
:10021600D3EF9499EE940250099001CC7418F00231
:1002260002F4D3EF9499EE94024012D3EF94A8EE21
:10023600940250099001CC7404F00202F4D3EF94B6
:10024600A8EE94024012D3EF94FBEE94025009906C
:1002560001CC7403F00202F4D3EF94FBEE94024057
:1002660011D3EF9422EE940350089001CC7402F05F
:10027600807CD3EF9422EE94034011D3EF9450EE9A
:10028600940350089001CC7401F08062D3EF94502F
:10029600EE94034010D3EF9475EE94035007E49068
:1002A60001CCF08049D3EF9475EE94034013D3EF5D
:1002B6009496EE9403500A900106E0640170028061
:1002C6001F900185E0FEA3E0FFD39475EE940340F2
:1002D60017D3EF949FEE9403500E900106E070083A
:1002E6009001CC7416F080069001CC7417F0900142
:1002F600CCE0541FFF90010EE054E04FF0900185D2
:10030600E0FFA3E0900112CFF0A3EFF09001C5E06B
:10031600FEA3E0FFD394AFEE94005010EF9414EEDA
:10032600940040089001CA7406F08074D3EF94AF2D
:10033600EE94004011D3EF94DEEE94005008900145
:10034600CA7419F0805AD3EF94DEEE9400400BD3B2
:10035600EF947BEE940250028040D3EF947BEE94B0
:10036600024011D3EF94E5EE940250089001CA744E
:100376001AF0802CD3EF94E5EE94024011D3EF945B
:10038600A0EE940350089001CA7408F08012900100
:100396000EE04420F054E04409F09001CA7407F0DE
:1003A600900111E0541F640970069001CA7407F0A9
:1003B6009001CAE0541FFF90010FE054E04FF0A2F5
:1003C60080E433900179F0E0FF9001C7E06F6002AE
:1003D600EFF0A281E43390017BF0E0FF9001C8E0EA
:1003E6006F7003020EA5EFF022124FAA900185EE60
:1003F600F0A3EFF0900112EEF0A3EFF090010EE003
:10040600C4135407135025E4900178F090017AF054
:1004160090017CF0A3F0A3F09001D1F09001CBF015
:10042600900177F09001CDF09001CCF0900185E03D
:10043600FEA3E0FFD3948AEE9402501BE490017869
:10044600F090017AF090017CF0A3F0A3F09001D136
:10045600E004F0E402051AD3EF948AEE9402402FEA
:10046600D3EF9499EE94025026E4900178F090012F
:100476007AF090017CF0A3F0A3F09001D1F0900106
:10048600CBF0900177F09001CDE004F0020629D37D
:10049600EF9499EE94024022D3EF94A8EE94025082
:1004A60019900178E004F0E490017AF090017CF074
:1004B600A3F0A3F09001D1F0805AD3EF94A8EE9464
:1004C600024027D3EF94FBEE9402501EE49001788D
:1004D600F090017AE004F0E490017CF0A3F0A3F040
:1004E6009001D1F09001CB020602D3EF94FBEE947B
:1004F60002402BD3EF9422EE94035022E49001782D
:10050600F090017AF090017CE004F0E4A3F0A3F00F
:100516009001D1F09001CBF0900177020602D3EF63
:100526009422EE9403402BD3EF9450EE9403502282
:10053600E4900178F090017AF090017CF0A3E00459
:10054600F0E4A3F09001D1F09001CBF09001770296
:100556000602D3EF9450EE9403402AD3EF9475EE3F
:1005660094035021E4900178F090017AF090017C98
:10057600F0A3F0A3E004F0E49001D1F09001CBF0F9
:100586009001778077D3EF9475EE94034031D3EFE3
:100596009496EE94035028900106E0640170209032
:1005A6000178F090017AF090017CF0A3F0A3F0902E
:1005B60001D1F09001CBE004F0E4900177803D900A
:1005C6000185E0FEA3E0FFD39475EE94034030D39B
:1005D600EF949FEE94035027900106E0702190015E
:1005E60078F090017AF090017CF0A3F0A3F09001EE
:1005F600D1F09001CBE004F0E4900177F08020E4A4
:10060600900178F090017AF090017CF0A3F0A3F0CD
:100616009001D1F09001CBF0900177E004F0E490E6
:1006260001CDF0C3900186E094BC900185E0940270
:100636004008900184E004F08005E4900184F09085
:100646000178E06414700B9001CC7404F0E490011E
:1006560078F090017AE06414700B9001CC7403F08A
:10066600E490017AF090017CE06414700B9001CC68
:100676007402F0E490017CF090017DE06414700A4D
:100686009001CC04F0E490017DF090017EE06414CA
:1006960070089001CCF090017EF09001D1E06414D6
:1006A600700B9001CC7415F0E49001D1F09001CB61
:1006B600E064147009A37416F0E49001CBF0900185
:1006C600CDE0641470099001CC7418F0E4A3F090A6
:1006D60001CBE064147009A37416F0E49001CBF02A
:1006E600900177E06414700B9001CC7417F0E490DD
:1006F6000177F09001CCE0FF900176E06F600BEFA0
:10070600F0900111E054E04414F0900184E0641488
:10071600703090010FE0FFC413540713501FEF54BD
:10072600DFF0900111E054E04414F07F137E0012D4
:100736004D5FEF6008E4FD7F13FE1249ECE4900183
:1007460084F09001CCE0541FFF90010EE054E04F7E
:10075600F0900106E07D117003020A727F2C7E0183
:10076600020E9C900118E01313543F1350097811A0
:10077600E654F04402F622900106E0640170087D1A
:100786000A7F64FE020E9C900118E0C413540713FE
:10079600402B90010FE0FFC4135407135008124E6C
:1007A60061EF6401700E9001067401F0FD7F107E0A
:1007B600000249EC7D257F0A7E00020E9C7D147F97
:1007C600B87E0B020E9C900106E064016003020EE7
:1007D600A57D0A7F64FE020E9C124FA39001C5EE12
:1007E600F0A3EFF0D394AFEE94005022E09414906F
:1007F60001C5E094004017E49001C9F09001D0F0E3
:10080600900180F0900183E004F0E40208E1900199
:10081600C5E0FEA3E0FFD394AFEE94004023D3EFF0
:1008260094DEEE9400501AE49001C9F09001D0F0E5
:10083600900180F0900183F09001C4E004F002087A
:10084600E5D3EF94DEEE9400401ED3EF947BEE9456
:100856000250159001C9E004F0E49001D0F0900137
:1008660080F0900183F08073D3EF947BEE94024086
:100876001FD3EF94E5EE94025016E49001C9F09070
:1008860001D0F0900180E004F0E4900183F0804B09
:10089600D3EF94E5EE9402401FD3EF94A0EE9403B9
:1008A6005016E49001C9F09001D0E004F0E4900104
:1008B60080F0900183F0802390010EE04420F054F4
:1008C600E04409F09001CA7407F0E49001C9F09081
:1008D60001D0F0900180F0900183F09001C4F09077
:1008E60001C9E0D394037480948050309001D0E025
:1008F6009403748094805024900180E09403748063
:1009060094805018900183E0940374809480500C76
:100916009001C4E0940374809480401F90013BE0F2
:1009260064017017900106E0701190010EE0C41387
:1009360054071350069001067401F0900183E06499
:100946000A701C9001CA7406F0E4900183F09001CD
:1009560010E054FDF054FBF090010EE054DFF090EF
:1009660001C4E0640A701C9001CA7419F0E4900195
:10097600C4F0900110E04402F054FBF090010EE048
:1009860054DFF09001C9E0640A701AA37407F0E41A
:100996009001C9F0900110E054FBF054FDF0900175
:1009A6000EE054DFF0900180E0640A701C9001CAEA
:1009B600741AF0E4900180F0900110E04404F054C1
:1009C600FDF090010EE054DFF09001D0E0640A7073
:1009D6001C9001CA7408F0E49001D0F0900110E078
:1009E60054FBF054FDF090010EE054DFF09001CA84
:1009F600E0541FFF90010FE054E04FF09001C5E076
:100A0600FEA3E0FFD394DEEE94004009D3EF9415E5
:100A1600EE9403400D9001CFE004F0E49001CEF097
:100A2600800BE49001CFF09001CEE004F09001CF6E
:100A3600E0640A701FF090010EE0FFC41313540324
:100A4600135021EFC4135407134019900110E044CA
:100A560008F080109001CEE0640A7008F090011052
:100A6600E054F7F0900106E07D1370067F64FE0205
:100A76000E9C7FC87E00020E9C900118E0FFC313F7
:100A8600135003020EA5EF4408F04410F07D087FD2
:100A9600E87E03020E9C124E61EF64016003020BB6
:100AA600EE90010EE0FFC41313540313402CEF44E1
:100AB60040F0C2EAA280E433900179F0E0FF9001B1
:100AC600C7E06F6002EFF0A281E43390017BF0E0B3
:100AD600FF9001C8E06F6002EFF090010EE0C413D2
:100AE60054071350057D2A020BDF7811E6C4540F14
:100AF6006402704490010FE0FF541F6407702CEFEE
:100B0600C413135403134023A3E0FF13401DEF1334
:100B16001313541F13401490010FE0C4135407130A
:100B260040047D2780027D26020BDF900111E054F0
:100B36001F6409704F020BD67811E6C4540F640780
:100B4600704490010FE0FF541F6407702BEFC4132D
:100B5600135403134022A3E0FF13401CEF13131397
:100B6600541F13401390010FE0C41354071340049D
:100B76007D2780027D268061900111E0541F640963
:100B86007002804C80517811E6C4540F6401705095
:100B960090010FE0FF541F6407702BEFC41313542A
:100BA60003134022A3E0FF13401CEF131313541F3B
:100BB60013401390010FE0C41354071340047D281B
:100BC60080027D268013900111E0541F640970078E
:100BD6007D2A7F64FE80067D297F647E00123F1099
:100BE6007D167F887E13803590010EE054BFF0C2DB
:100BF600EA4480F0A3E054BFF090013BE06401704A
:100C06000D900106E0640170057F821233507D2944
:100C16007FF47E01123F107D177FF47E01123F1094
:100C2600C2EA22A280E433900179F0A281E43390F3
:100C3600017BF0900179E0FF9001C7E06F601990A9
:100C4600010EE0C413540713400E9001C7EFF09055
:100C56000111E054E04414F090017BE0FF9001C8DC
:100C6600E06F601990010EE0C413540713400E9014
:100C760001C8EFF0900111E054E04414F090011027
:100C8600E0FF134018900113E094FF900112E094E6
:100C960003400AEF4401900110F0123F0A90010E42
:100CA600E0541F24FC4003020DBC7003020DA02477
:100CB600EF6056147003020DBC24FE604C04600302
:100CC600020DCA90010FE0FFC4131354031340042E
:100CD600EF4440F090010FE0FFC413540713501F78
:100CE600EF54DFF0900111E054E04414F07F137EDE
:100CF60000124D5FEF6008E4FD7F13FE1249EC9091
:100D06000110E054EFF0020DCA90010FE0FFC4138A
:100D1600540713402F900118E013402890010EE06D
:100D2600C41313540313401CEF4420A3F07F137E17
:100D360000124D5FEF70087D017F13FE1249EC1221
:100D46003F0A803590010EE0FF541F6415702A900B
:100D56000106E064017022EFC41313540313401913
:100D6600E4F0FD7F10FE1249EC900118E0FF13132A
:100D7600543F135004EF54FBF0900118E013135442
:100D86003F1350087811E654F04402F690010FE044
:100D960054BFF0A3E04410F0802A90010FE054BF46
:100DA600F0900118E01313543F1350187811E654CD
:100DB600F04402F6800E900110E04410F090010F0E
:100DC600E054BFF07D187F887E13020E9C124E61A0
:100DD600EF6401702790013BE06401700E900106FC
:100DE600E070087D147F64FE123F10900111E054FC
:100DF600E04414F07D167F647E00801020A602C2B7
:100E0600EA7D29123F0C7D177F887E13123F10C2A0
:100E1600EA22900111E0541F640E7003020EA57FB2
:100E26000E8036900111E0541F640D60727F0D80B4
:100E360028900111E0541F640F60647F0F801A90A0
:100E46000111E0541F641060567F10800C90011150
:100E5600E0541F640960487F090230B2900254E0F2
:100E6600240AF0E0643C7007F090025CE004F09025
:100E7600025CE0643C7007F0900261E004F09002CE
:100E860061E064187007F0900260E004F01229E255
:100E96007D2B7F107E27023F1090011B7402F022EB
:100EA6000211EEE86480F8E933E83360110460F07B
:100EB600ED33EC337009E8FCE9FDEAFEEBFF2204B2
:100EC60060DED3EB9FEA9EE99DE8C2E78CF0C2F7AD
:100ED60095F0400CE8CCF8E9CDF9EACEFAEBCFFB79
:100EE6001211B985D0F05804700320D5B3E8047008
:100EF600075002B2D50211F892D5EC0460F7E4CCA3
:100F0600C0E0C398F8603B94186008400DD0E0FB41
:100F16000211D0E4FBFAC9FC8028E830E406E4C9F3
:100F2600FBE4CAFCE830E305E4C9CACBFCE8540795
:100F36006010F8C3E913F9EA13FAEB13FBEC13FCA0
:100F4600D8F130F52FC3E49CFCEF9BFFEE9AFEED43
:100F560099FDD0E0FBEF4E4D4C701222DB030211DF
:100F6600F5EC2CFCEF33FFEE33FEED33FDED30E711
:100F7600EB0211D0EF2BFFEE3AFEED39FDD0E0FB90
:100F860050130BBB00030211F8ED13FDEE13FEEF39
:080F960013FFEC13FC0211D063
:100F9E00EC4D6011E8497017ED33EC3304600DE44D
:100FAE00FCFFFEFD22E933E8330470F80211EE1265
:100FBE0011B958046009E4CC248150062850090266
:100FCE0011F82840030211F5C0E0EB4A7044B980D5
:100FDE0006D0E0FB0211E4EF4E701CBD8008EBFF63
:100FEE00EAFEE9FD80EBE98DF0A4FEE5F002108744
:100FFE00E9CDF9EAFEEBFFEF89F0A4FCE5F0CE892E
:10100E00F0A42EFFE435F0CD89F0A42DFEE435F0EA
:10101E008067EF4E7005BD80D780C3EF8BF0A4AC18
:10102E00F0EE8BF0A42CFCE435F0F8EF8AF0A42C53
:10103E00E5F038FCE433CB8DF0A42CFCE5F03BF866
:10104E00EE8AF0A42CFCE5F038F8E433CF89F0A456
:10105E002CFCE5F038CF3400CE89F0A42FFFE5F05C
:10106E003EFEE433C98DF0A42EFEE5F039CD8AF0B4
:10107E00A42FFFE5F03EFEE43DFD33D0E0FB50072C
:10108E000BBB000F0211F8EC2CFCEF33FFEE33FE1E
:06109E00ED33FD0211D04C
:1010A4000211F8EC5D046005E8590470030211EEC6
:1010B4001211B9580460F6EC4860F2EC7004FDFEBD
:1010C400FF22C860DB2481C85009C398600250061F
:1010D4000211F59850CAF582E9294B4A7005AB8292
:1010E4000211E475F0007C1A7880C3EF9BEE9AED50
:1010F40099400DC3EF9BFFEE9AFEED99FDE842F097
:10110400DC23ACF0D0E0FFD0E0FED0E0FDAB8220E9
:10111400E7101BEB60BAEC2CFCEF33FFEE33FEED73
:1011240033FD0211D0E803F830E705C0F075F00094
:10113400EF2FFFEE33FEED33FD40B830E7C280AA57
:1011440075F020800E75F010800575F0087D007E26
:10115400007F003392D530D5031215EBEC334010E9
:10116400EF33FFEE33FEED33FDEC33FCD5F0ED222F
:0E117400E5F0247EA2D513CC92E7CDCEFF226B
:10118200EDD2E7CD33EC3392D524814006E4FFFE65
:10119200FDFC22FCE4CFCECDCC24E0501174FF80C4
:1011A200EDC3CC13CCCD13CDCE13CECF13CF047061
:0711B200F030D5DE0215EB61
:1011B900E9D2E7C933E833F892D5EDD2E7CD33EC7C
:0711C90033FC5002B2D522F5
:1011D000EC30E7100FBF000C0EBE00080DBD000480
:1011E0000BEB6014A2D5EB13FCED92E7FD2274FF2C
:1011F000FCFDFEFF22E480F8A2D574FF13FC7D8085
:03120000E480EF98
:10442A000245B3E493A3F8E493A34003F68001F2B0
:10443A0008DFF48029E493A3F85407240CC8C33393
:10444A00C4540F4420C8834004F456800146F6DF62
:10445A00E4800B01020408102040809037C2E47EF9
:10446A00019360BCA3FF543F30E509541FFEE49357
:10447A00A360010ECF54C025E060A840B8E493A31E
:10448A00FAE493A3F8E493A3C8C582C8CAC583CA49
:10449A00F0A3C8C582C8CAC583CADFE9DEE780BE01
:01398D000039
:10120300E709F608DFFA8046E709F208DFFA803ECD
:1012130088828C83E709F0A3DFFA8032E309F608BA
:10122300DFFA8078E309F208DFFA807088828C8322
:10123300E309F0A3DFFA806489828A83E0A3F608D6
:10124300DFFA805889828A83E0A3F208DFFA804CB0
:1012530080D280FA80C680D4806980F28033801087
:1012630080A680EA809A80A880DA80E280CA8033F0
:1012730089828A83ECFAE493A3C8C582C8CCC58368
:10128300CCF0A3C8C582C8CCC583CCDFE9DEE78038
:101293000D89828A83E493A3F608DFF9ECFAA9F0B7
:1012A300EDFB2289828A83ECFAE0A3C8C582C8CC0D
:1012B300C583CCF0A3C8C582C8CCC583CCDFEADE26
:1012C300E880DB89828A83E493A3F208DFF980CC88
:1012D30088F0EF60010E4E60C388F0ED2402B40481
:1012E3000050B9F582EB2402B4040050AF23234528
:0612F300822390125373E8
:1012F900BB010689828A83E0225002E722BBFE02F3
:09130900E32289828A83E4932225
:10131200BB010CE58229F582E5833AF583E0225090
:1013220006E92582F8E622BBFE06E92582F8E222DA
:0D133200E58229F582E5833AF583E49322F4
:10133F00BB010989828A83F8E028F022500327F73E
:10134F0022BBFE05F8E328F3228A838982F8E4930F
:02135F00282242
:10136100F8BB010DE58229F582E5833AF583E8F0C2
:10137100225006E92582C8F622BBFE05E92582C86E
:02138100F22256
:10138300EF8DF0A4A8F0CF8CF0A428CE8DF0A42E7E
:02139300FE2238
:10139500BC000BBE0029EF8DF084FFADF022E4CC3C
:1013A500F875F008EF2FFFEE33FEEC33FCEE9DEC05
:1013B500984005FCEE9DFE0FD5F0E9E4CEFD22ED4B
:1013C500F8F5F0EE8420D21CFEADF075F008EF2F95
:1013D500FFED33FD4007985006D5F0F222C398FD86
:0513E5000FD5F0EA2223
:1013EA00C2D5EC30E709B2D5E4C39DFDE49CFCEE1E
:1013FA0030E715B2D5E4C39FFFE49EFE121395C3EE
:10140A00E49DFDE49CFC800312139530D507C3E4E8
:06141A009FFFE49EFE228C
:10142000C5F0F8A3E028F0C5F0F8E5821582700257
:061430001583E038F022F4
:10143600A3F8E0C5F025F0F0E58215827002158369
:06144600E0C838F0E822C6
:10144C00BB010A89828A83E0F5F0A3E0225006876B
:10145C00F009E71922BBFE07E3F5F009E31922892D
:0B146C00828A83E493F5F07401932260
:10147700BB0110E58229F582E5833AF583E0F5F0B3
:10148700A3E0225009E92582F886F008E622BBFE90
:101497000AE92582F8E2F5F008E222E5832AF583D6
:0814A700E993F5F0A3E993229B
:1014AF00BB010A89828A83F0E5F0A3F0225006F788
:0F14BF0009A7F01922BBFE06F3E5F009F3192285
:1014CE00E88FF0A4CC8BF0A42CFCE98EF0A42CFCBD
:1014DE008AF0EDA42CFCEA8EF0A4CDA8F08BF0A43B
:1014EE002DCC3825F0FDE98FF0A42CCD35F0FCEB9A
:1014FE008EF0A4FEA9F0EB8FF0A4CFC5F02ECD395F
:0F150E00FEE43CFCEAA42DCE35F0FDE43CFC22CB
:10151D0075F008758200EF2FFFEE33FECD33CDCC85
:10152D0033CCC58233C5829BED9AEC99E582984008
:10153D000CF582EE9BFEED9AFDEC99FC0FD5F0D6E5
:10154D00E4CEFBE4CDFAE4CCF9A88222B800C1B90F
:10155D000059BA002DEC8BF084CFCECDFCE5F0CB4D
:10156D00F97818EF2FFFEE33FEED33FDEC33FCEB86
:10157D0033FB10D703994004EB99FB0FD8E5E4F941
:10158D00FA227818EF2FFFEE33FEED33FDEC33FC2E
:10159D00C933C910D7059BE99A4007EC9BFCE99A22
:1015AD00F90FD8E0E4C9FAE4CCFB2275F010EF2F67
:1015BD00FFEE33FEED33FDCC33CCC833C810D70767
:1015CD009BEC9AE899400AED9BFDEC9AFCE899F8A2
:0E15DD000FD5F0DAE4CDFBE4CCFAE4C8F92235
:0E15EB00C3E49FFFE49EFEE49DFDE49CFC2211
:1015F900EB9FF5F0EA9E42F0E99D42F0EC6480C869
:0616090064809845F02208
:10160F00EB9FF5F0EA9E42F0E99D42F0E89C45F031
:01161F0022A8
:10162000E86010ECA2E713FCED13FDEE13FEEF13E0
:04163000FFD8F022CD
:10163400BB010789828A830216E35005E9F8021682
:10164400D7BBFE05E9F80216EF89828A830216FBEE
:0C165400ECF0A3EDF0A3EEF0A3EFF02209
:10166000A8828583F0D083D0821216771216771263
:101670001677121677E473E493A3C583C5F0C58388
:10168000C8C582C8F0A3C583C5F0C583C8C582C8D4
:011690002237
:10169100BB010789828A830217145005E9F80217F2
:1016A1000BBBFE05E9F802171D89828A8302172602
:1016B100D083D082F8E4937012740193700DA3A3C8
:1016C10093F8740193F5828883E4737402936860DC
:0616D100EFA3A3A380DFDC
:0C4F8C00EE30E707C3E49FFFE49EFE2226
:0C16D700E6FC08E6FD08E6FE08E6FF223F
:0C16E300E0FCA3E0FDA3E0FEA3E0FF227A
:0C16EF00E2FC08E2FD08E2FE08E2FF2237
:1016FB00E493FC740193FD740293FE740393FF2235
:09170B00E6FB08E6FA08E6F92203
:09171400E0FBA3E0FAA3E0F922D6
:09171D00E2FB08E2FA08E2F922FD
:0C172600E493FB740193FA740293F9221F
:00000001FF
